:100000000C947B000C94A3000C94A3000C94510856
:100010000C9451080C9451080C94A3000C94A30068
:100020000C94A3000C94A3000C94A3000C94A300C4
:100030000C94A3000C94A3000C94A3000C94A300B4
:100040000C9434060C94A3000C941B040C94F5033C
:100050000C94A3000C94A3000C94A3000C94A30094
:100060000C9423070C94A3004E414E494E49545919
:10007000494E46CDCCCC3D0AD7233C17B7D1387773
:10008000CC2B329595E6241FB14F0A000020410089
:1000900000C84200401C4620BCBE4CCA1B0E5AAED3
:1000A000C59D7400000000240027002A0000000005
:1000B0000800020100000304070000000000000027
:1000C00000010204081020408001020408102001F1
:1000D000020408102000000000250028002B000466
:1000E00004040404040404020202020202030303DF
:1000F00003030300E40D11241FBECFEFD8E0DEBFE1
:10010000CDBF24E0ACEEB1E001C01D92AE31B2072C
:10011000E1F711E0A0E0B1E0ECE2F9E202C0059005
:100120000D92AC3EB107D9F710E0CBE7D0E004C0A8
:100130002197FE010E945C12CA37D107C9F70E94BD
:10014000FC0A0C9494140C940000CF92DF92EF926E
:10015000FF920F931F93CF93DF936C017A018B0172
:10016000C0E0D0E0CE15DF0589F0D8016D918D019A
:10017000D601ED91FC910190F081E02DC601099529
:10018000892B11F47E0102C02196ECCFC701DF91CB
:10019000CF911F910F91FF90EF90DF90CF90089536
:1001A000FC01538D448D252F30E0842F90E0821B7D
:1001B000930B541710F0CF96089501970895FC0102
:1001C000918D828D981761F0828DDF01A80FB11D8E
:1001D0005D968C91928D9F5F9F73928F90E00895B2
:1001E0008FEF9FEF0895FC01918D828D981731F06C
:1001F000828DE80FF11D858D90E008958FEF9FEFC0
:100200000895FC01918D228D892F90E0805C9F4F95
:10021000821B91098F73992708958DE892E00E94BF
:10022000010121E0892B09F420E0822F0895FC01CF
:10023000848DDF01A80FB11DA35ABF4F2C91848D6F
:1002400090E001968F739927848FA689B7892C93A4
:10025000A089B1898C9180648C93938D848D98133F
:1002600006C00288F389E02D80818F7D8083089508
:10027000EF92FF920F931F93CF93DF93EC0181E0F6
:10028000888F9B8D8C8D981305C0E889F9898081B2
:1002900085FD24C0F62E0B8D10E00F5F1F4F0F73EE
:1002A0001127E02E8C8DE8120CC00FB607FCFACF98
:1002B000E889F989808185FFF5CFCE010E94170179
:1002C000F1CF8B8DFE01E80FF11DE35AFF4FF08255
:1002D0000B8FEA89FB898081806207C0EE89FF89E4
:1002E0006083E889F98980818064808381E090E07F
:1002F000DF91CF911F910F91FF90EF900895CF93D1
:10030000DF93EC01888D8823C9F0EA89FB8980811D
:1003100085FD05C0A889B9898C9186FD0FC00FB6EF
:1003200007FCF5CF808185FFF2CFA889B9898C9130
:1003300085FFEDCFCE010E941701E7CFDF91CF916E
:10034000089580E090E0892B29F00E940D01811131
:100350000C94000008953FB7F8948091800290912A
:100360008102A0918202B091830226B5A89B05C0AC
:100370002F3F19F00196A11DB11D3FBFBA2FA92F24
:10038000982F8827820F911DA11DB11DBC01CD01A1
:1003900042E0660F771F881F991F4A95D1F708958D
:1003A00085ED8093BC008091BC0084FDFCCF109251
:1003B0008602089540911002262F30E0240F311D4F
:1003C00021323105DCF4209186022430C9F4FC018D
:1003D00080E090E0861758F4309110022191DC0102
:1003E000A251BE4FA30FB11D2C930196F3CF809164
:1003F0001002680F6093100280E0089581E0089574
:1004000082E00895089581E090E030918A02209181
:100410008902321710F480E090E09195819591095E
:10042000089580918A0290918902891730F48F5F34
:1004300080938A0280E090E008958FEF9FEF089507
:100440008091890290E020918A02821B910908958F
:10045000CF92DF92EF92FF920F931F93CF93DF9390
:100460007C01262F972F8A0180915902882391F0D1
:10047000C62FD72F6E01C40ED51ECC15DD0571F029
:100480006991D701ED91FC910190F081E02DC701B8
:100490000995F3CF642F822F0E94DA01C801DF9102
:1004A000CF911F910F91FF90EF90DF90CF90089523
:1004B000CF93DF931F92CDB7DEB7698320915902A6
:1004C0002223D1F020918702203240F021E030E059
:1004D000FC013383228380E090E015C08091880284
:1004E000E82FF0E0E65AFD4F998190838F5F80936B
:1004F00088028093870205C061E0CE0101960E94C8
:10050000DA0181E090E00F90DF91CF9108958F9212
:100510009F92AF92BF92CF92DF92EF92FF920F9392
:100520001F93CF93DF93FC014A01AA24BB24B82D6B
:10053000C32ED42EE52EFF24AC2D922F8781882345
:1005400061F0889E40011124B92DC89E60011124DC
:10055000AD2D289FE00111249D2FD584C285E08414
:10056000F184DC1208C09B01220F331F620F731F3E
:100570006E0D7F1D16C0660F771F660F771F6E0DFD
:100580007F1D052F112722273327EB01CD0DD11D0C
:10059000882329F0089F90011124232F01C0202FC8
:1005A00028838285EB01C80FD11DB8838385EB01B9
:1005B000C80FD11DA8838485FB01E80FF11D90832E
:1005C000DF91CF911F910F91FF90EF90DF90CF902F
:1005D000BF90AF909F908F900895089580E090E035
:1005E00008950E948D0A0E94710E909309018093D4
:1005F000080108950E948D0A0E946D0E6093040107
:1006000070930501809306019093070108950E945D
:100610008D0A0E946D0E609300017093010180931A
:100620000201909303010895FC011182108213824C
:100630001282158214826115710551F0FB0101903F
:100640000020E9F73197AF01461B570B0C943C0A89
:1006500008950F931F93CF93DF9300D000D000D065
:10066000CDB7DEB70E948D0A8C010E94710EE09119
:100670008B02F0918C02918780876BE571E0CE014F
:1006800001960E94140363E08EE00E949E0ACE0150
:1006900001960E94950A63E08EE00E949E0A68E43B
:1006A00071E0CE0101960E94670AB801CE01019661
:1006B0000E94070ACE0101960E94950ACE0101967A
:1006C0000E94880A26960FB6F894DEBF0FBECDBFF3
:1006D000DF91CF911F910F9108950F931F93CF93A7
:1006E000DF9300D000D000D0CDB7DEB70E948D0AD6
:1006F0008C010E94710EE0918B02F0918C02978325
:1007000086836BE571E0CE0101960E94140363E0DD
:1007100087E00E949E0ACE0101960E94950A63E03E
:1007200087E00E949E0A6CE471E0CE0101960E946F
:10073000670AB801CE0101960E94070ACE01019610
:100740000E94950ACE0101960E94880A26960FB64D
:10075000F894DEBF0FBECDBFDF91CF911F910F91F7
:1007600008950F931F93CF93DF9300D000D000D054
:10077000CDB7DEB70E948D0A8C010E94710EE09108
:100780008B02F0918C02958384836BE571E0CE013E
:1007900001960E94140363E080E00E949E0ACE014D
:1007A00001960E94950A63E080E00E949E0A60E53F
:1007B00071E0CE0101960E94670AB801CE01019650
:1007C0000E94070ACE0101960E94950ACE01019669
:1007D0000E94880A26960FB6F894DEBF0FBECDBFE2
:1007E000DF91CF911F910F9108951F920F920FB635
:1007F0000F9211242F933F934F935F936F937F93A7
:100800008F939F93AF93BF93EF93FF938DE892E005
:100810000E941701FF91EF91BF91AF919F918F912E
:100820007F916F915F914F913F912F910F900FBEEC
:100830000F901F9018951F920F920FB60F921124D0
:100840002F938F939F93EF93FF93E0919D02F091ED
:100850009E028081E091A302F091A40282FD12C069
:1008600090818091A6028F5F8F732091A7028217DB
:1008700051F0E091A602F0E0E357FD4F958F809391
:10088000A60201C08081FF91EF919F918F912F91DE
:100890000F900FBE0F901F90189590E0FC01E3554C
:1008A000FF4F3491FC01EF53FF4F2491FC01E152C3
:1008B000FF4FE491EE2309F43BC0332339F1333089
:1008C00091F038F43130A9F0323001F584B58F7DE4
:1008D00012C0373091F03830A1F03430B9F4809143
:1008E00080008F7D03C0809180008F77809380008F
:1008F0000DC084B58F7784BD09C08091B0008F771B
:1009000003C08091B0008F7D8093B000F0E0EE0FC7
:10091000FF1FEB52FF4FA591B4918FB7F894EC9164
:10092000611103C020952E2301C02E2B2C938FBF65
:1009300008958F929F92AF92BF92CF92DF92EF92E3
:10094000FF92CF93DF9300D000D000D0CDB7DEB7B9
:100950000E948D0A6C010E94710E7C0164E571E0B9
:10096000CE0101960E94140361E080E00E949E0A7D
:10097000CE0101960E94950A61E080E00E949E0AE5
:1009800062E671E0CE0101960E94670AB601CE01CF
:1009900001960E94070ACE0101960E94950AB701AE
:1009A000FF0C880B990B0E9443106B017C01809017
:1009B000040190900501A0900601B090070120E08D
:1009C00030E040E05FE3C501B4010E94B5119B0136
:1009D000AC01C701B6010E945712181634F460E04A
:1009E00084E00E944D0461E037C020E030E040E048
:1009F0005FE3C501B4010E94B4119B01AC01C701C2
:100A0000B6010E943C1087FF02C061E021C02DECBE
:100A10003CEC4CE45EE3C501B4010E94B5119B01BE
:100A2000AC01C701B6010E943C10181684F42DECED
:100A30003CEC4CE45EE3C501B4010E94B4119B019F
:100A4000AC01C701B6010E94571287FD08C060E0E3
:100A500084E00E944D0460E086E00E944D04CE01D7
:100A600001960E94880A26960FB6F894DEBF0FBE44
:100A7000CDBFDF91CF91FF90EF90DF90CF90BF90EF
:100A8000AF909F908F9008958F929F92AF92BF9258
:100A9000CF92DF92EF92FF92CF93DF9300D000D0FE
:100AA00000D0CDB7DEB70E948D0A5C010E946D0EAA
:100AB0006B017C0164E571E0CE0101960E94140394
:100AC00060E080E00E949E0ACE0101960E94950A95
:100AD00060E080E00E949E0A6DE671E0CE01019622
:100AE0000E94670AB501CE0101960E94070ACE0155
:100AF00001960E94950A8090000190900101A090BB
:100B00000201B090030120E030E040E050E4C50174
:100B1000B4010E94B5119B01AC01C701B6010E944E
:100B20005712181614F460E011C020E030E040E0E5
:100B300050E4C501B4010E94B4119B01AC01C7018E
:100B4000B6010E943C1087FF04C061E085E00E946E
:100B50004D04CE0101960E94880A26960FB6F8949D
:100B6000DEBF0FBECDBFDF91CF91FF90EF90DF9042
:100B7000CF90BF90AF909F908F900895CF93DF93C9
:100B800090E0FC01EF53FF4F2491FC01E152FF4F35
:100B90008491882361F190E0880F991FFC01ED5545
:100BA000FF4FC591D491FC01EB52FF4FA591B49139
:100BB000611109C09FB7F8948881209582238883AA
:100BC000EC912E230BC0623061F49FB7F89438810A
:100BD000822F809583238883EC912E2B2C939FBFAB
:100BE00006C08FB7F894E8812E2B28838FBFDF9142
:100BF000CF9108958F929F92AF92BF92CF92DF9242
:100C0000EF92FF926B017C010E94AB014B015C01F2
:100C1000C114D104E104F104F1F00E94AB01DC0144
:100C2000CB0188199909AA09BB09883E9340A105FF
:100C3000B10570F321E0C21AD108E108F10888EE8D
:100C4000880E83E0981EA11CB11CC114D104E104DC
:100C5000F10419F7DDCFFF90EF90DF90CF90BF90B8
:100C6000AF909F908F9008951F920F920FB60F92A2
:100C700011242F933F938F939F93AF93BF938091B2
:100C80007C0290917D02A0917E02B0917F02309112
:100C90007B0223E0230F2D3720F40196A11DB11D07
:100CA00005C026E8230F0296A11DB11D20937B02EB
:100CB00080937C0290937D02A0937E02B0937F028A
:100CC0008091800290918102A0918202B091830272
:100CD0000196A11DB11D8093800290938102A09383
:100CE0008202B0938302BF91AF919F918F913F9108
:100CF0002F910F900FBE0F901F901895CF93FC016E
:100D0000C48121E020935902C0937A021092880294
:100D1000109287028385682B8AE293E00E94580232
:100D200080918702813208F046C09091860291112D
:100D3000FCCF92E09093860291E0909385029FEF22
:100D4000909358021092570280935602AAE5B2E09F
:100D500026E332E0F9019E2F921B981718F49D911B
:100D60009193F9CF1092350280913502CC0FC82BA8
:100D7000C093350280918402813061F41092840224
:100D8000809135028093BB008091BC0083FDF8CF39
:100D900085EC01C085EE8093BC0080918602823094
:100DA000E1F3809158028F3F31F0809158028032F8
:100DB00011F08091580210928802109287021092CE
:100DC0005902CF9108950F931F93CF938C01C62F93
:100DD0000E947E066C2F6460C8010E947E066C2F04
:100DE0006B7FC8010E947E0683EC90E00197F1F7CB
:100DF000CF911F910F910895FF920F931F93CF935F
:100E0000DF931F92CDB7DEB78C01F62E962F907F21
:100E1000692F642BC80149830E94E30680E1F89E94
:100E2000B00111244981642BC8010F90DF91CF914B
:100E30001F910F91FF900C94E30641E00E94FC0685
:100E400081E090E008951F920F920FB60F92112447
:100E50002F933F934F935F936F937F938F939F93C2
:100E6000AF93BF93EF93FF938091B900887F803653
:100E700009F49CC068F5883209F45BC090F48031B5
:100E800009F454C038F4882309F4F6C0883009F412
:100E90004DC0F6C0883109F44CC0803209F45DC001
:100EA000EFC0803409F468C048F4803309F455C0B9
:100EB000883309F0E5C080935802D8C0803509F422
:100EC0004FC0883509F45DC0883409F0D9C0D6C058
:100ED000883909F4C7C0A8F4883709F467C038F422
:100EE000883609F463C0803709F460C0C9C0883807
:100EF00009F4B8C0803909F45FC0803809F0C0C077
:100F00005BC0803B09F486C038F4803A09F466C0BF
:100F1000883A09F47FC0B4C0803C09F4A7C0883C7B
:100F200009F4A4C0883B09F48AC0AAC080913502A4
:100F300010C09091570280915602981770F5E09179
:100F4000570281E08E0F80935702F0E0EA5CFD4F7C
:100F500080818093BB0085EC86C0809358028EC050
:100F6000E091570281E08E0F809357028091BB0081
:100F7000F0E0EA5CFD4F8083909157028091560229
:100F80006EC0E091570281E08E0F809357028091EE
:100F9000BB00F0E0EA5CFD4F808380918502811107
:100FA0006DC081E08093840284EA61C083E0809315
:100FB000860210923402CFCF80913402803208F042
:100FC00051C0E091340281E08E0F80933402809111
:100FD000BB00F0E0EC5EFD4F8083BDCF85EC8093DD
:100FE000BC001092860280913402803230F4E0918D
:100FF0003402F0E0EC5EFD4F10826091340270E04C
:10100000E0911202F091130284E192E009951092AE
:10101000340236C084E0809386021092110210924E
:101020001002E0910E02F0910F02099580911002DA
:10103000811105C081E0809310021092EE01E091D1
:10104000110281E08E0F80931102F0E0E251FE4F19
:1010500080818093BB0090911102809110029817BB
:1010600008F479CF85E88093BC000AC085EC8093B2
:10107000BC001092860204C0109258020E94D00157
:10108000FF91EF91BF91AF919F918F917F916F9160
:101090005F914F913F912F910F900FBE0F901F9036
:1010A00018951F920F920FB60F9211240F900FBE3A
:1010B0000F901F9018958F929F92AF92BF92CF92F0
:1010C000DF92EF92FF920F931F93CF93DF93CDB7F1
:1010D000DEB729970FB6F894DEBF0FBECDBF8C01E7
:1010E000E12CF12C6C012AE0C20ED11CD8018D91AB
:1010F0009C91E816F9066CF5D80112962D913C9159
:1011000013971C968D919C911D97E216F3063CF463
:10111000E816F906D0F420E030E0A90112C0F80189
:10112000608576812481E816F90678F4822F90E0B4
:10113000A0E0B0E0DC0199278827972B9C01AD0146
:10114000262BB701C6010E948702FFEFEF1AFF0AA4
:10115000CDCF7801BAE0EB0EF11CF80182899389BA
:10116000892B09F4A5C00E94AB01D80158968D9037
:101170009D90AD90BC905B97DC01CB0188199909DB
:10118000AA09BB098C329140A105B10560F3F8941E
:10119000D8011E968D919C911F979A8389835296B0
:1011A000ED91FC9153976F01BFEFCB1ADB0A808161
:1011B0008987F8019285048CF58DE02DD8015E9623
:1011C0008C91992309F430C09081982B9887908155
:1011D000809589238F838F818C8388E08B835885CA
:1011E0006F8149853B812C8189819A81D601508309
:1011F00047FD252F3A952083262F39F0441F00C044
:1012000000006083000000C0F2CF38E04D916083A1
:101210000000019761F7D7015396FC93EE93529724
:1012200049873B832C833AC09081982B9887908183
:10123000809589238F838F818E8388E08D83588565
:101240006F8149853D812E8189819A81D6015083A4
:1012500047FD252F00C000C0208300C000C000C093
:1012600000C000C060830000262F3A9541F0441F63
:10127000000000C000C000C000C000C0E8CF38E0DF
:101280004D9100C0608300C0019709F7D7015396C4
:10129000FC93EE93529749873D832E839A838983EB
:1012A00078940E94AB01F801608F718F828F938FC9
:1012B00029960FB6F894DEBF0FBECDBFDF91CF9158
:1012C0001F910F91FF90EF90DF90CF90BF90AF9064
:1012D0009F908F900895EF92FF920F931F93CF935B
:1012E000DF9300D000D000D0CDB7DEB70E948D0ACA
:1012F0007C010E946D0E0E9421128B0164E571E059
:10130000CE0101960E94140362E080E00E949E0AD2
:10131000CE0101960E94950A62E080E00E949E0A3A
:1013200065E771E0CE0101960E94670AB701CE0120
:1013300001960E94070ACE0101960E94950A8091AB
:101340000801909109019C01225E3F4F201731074F
:1013500084F4E0918B02F0918C0282819381208150
:101360003181821793071CF4019693838283CF0106
:1013700012C04E970817190784F480918B02909140
:101380008C02FC01228133811216130624F42150B1
:101390003109338322830E945B08CE0101960E94AB
:1013A000880A26960FB6F894DEBF0FBECDBFDF9138
:1013B000CF911F910F91FF90EF9008950E945914C3
:1013C0000F931F93CF93DF93EC018881998100974E
:1013D00029F02A813B812617370788F48B016F5F3C
:1013E0007F4F0E948F13009761F0998388831B833E
:1013F0000A832C813D81232B11F4FC01108281E0B2
:1014000001C080E0DF91CF911F910F910895EF927D
:10141000FF920F931F93CF93DF936115710511F422
:1014200080E023C0FB0101900020E9F73197E61B23
:10143000F70BDC0114960D911C9115973097A1F0D4
:101440007B01EC010E0F1F1FB8010E94E0098823E9
:1014500039F3288139818C819D81B701820F931FD7
:101460000E9470141D830C8381E0DF91CF911F9146
:101470000F91FF90EF900895EF92FF920F931F93BB
:10148000CF93DF93EC017B018A01BA010E94E0094E
:101490002881398181110DC02115310519F0C9014B
:1014A0000E94F712198218821D821C821B821A82E6
:1014B00006C01D830C83B701C9010E947014CE01C0
:1014C000DF91CF911F910F91FF90EF900895CF93EF
:1014D000DF93EC016115710559F0FB0101900020CB
:1014E000E9F73197AF01461B570B0E943C0A0CC02D
:1014F00088819981009711F00E94F7121982188251
:101500001D821C821B821A82CE01DF91CF91089529
:10151000FC01808191810C94F7124AE553E065E566
:1015200073E080E090E00C948F0EFC0144815581C3
:101530006081718186E393E00C94A500CF93DF93E3
:10154000CDB7DEB728970FB6F894DEBF0FBECDBF7C
:1015500028E0E0E1F1E0DE01119601900D922A957C
:10156000E1F720913F03261710F46FEF620FFE01A1
:101570003196E60FF11DE60FF11D9081682F690F7E
:10158000606840E086E393E028960FB6F894DEBFEB
:101590000FBECDBFDF91CF910C94FC061F93CF936C
:1015A000DF9320915C0330915D032A30310504F50F
:1015B000EB01BC0112E1129FC001139F900D112499
:1015C00040E150E0825A9C4F0E94851480915C0358
:1015D00090915D03189FF001199FF00D1124EE5BAF
:1015E000FC4FD5A7C4A7019690935D0380935C033D
:1015F000DF91CF911F910895CF93DF9300D000D05A
:1016000000D0CDB7DEB7789484B5826084BD84B550
:10161000816084BD85B5826085BD85B5816085BDED
:1016200080916E00816080936E00109281008091A5
:10163000810082608093810080918100816080932D
:101640008100809180008160809380008091B10052
:1016500084608093B1008091B00081608093B0007D
:1016600080917A00846080937A0080917A00826011
:1016700080937A0080917A00816080937A008091D3
:101680007A00806880937A001092C100E0919D02F8
:10169000F0919E0282E08083E0919902F0919A029B
:1016A0001082E0919B02F0919C0287E68083109269
:1016B000A502E091A102F091A20286E08083E09170
:1016C0009F02F091A002808180618083E0919F025F
:1016D000F091A002808188608083E0919F02F09168
:1016E000A002808180688083E0919F02F091A00237
:1016F00080818F7D808310928A02109289021092DD
:101700008802109287021092860281E080938502FF
:101710001092840261E082E10E944D0461E083E165
:101720000E944D048091B9008E7F8093B900809112
:10173000B9008D7F8093B90088E48093B80085E478
:101740008093BC0010923B0380913F03823018F0DD
:1017500098E090933B0390914003992339F08130B6
:1017600029F480913B03846080933B0362E370E043
:1017700080E090E00E94FA056091410386E393E0E7
:101780000E947E0668EE73E080E090E00E94FA0519
:1017900060E386E393E00E94E3060BE416E4C801ED
:1017A0000197F1F760E386E393E00E94E306C80146
:1017B0000197F1F760E386E393E00E94E30683E597
:1017C00092E00197F1F760E286E393E00E94E3067E
:1017D00060913B03606240E086E393E00E94FC0678
:1017E00084E080933C0340E06CE086E393E00E9459
:1017F000FC0640E061E086E393E00E94FC060BE318
:101800001FE1C8010197F1F732E0D32ED0923D03DA
:1018100040E066E086E393E00E94FC0640E062E080
:1018200086E393E00E94FC06C8010197F1F788E087
:101830008093410360E086E393E00E947E066FE7B9
:1018400071E0CE0101960E94140360E080E00E94E6
:101850009E0ACE0101960E94950A8FE190E00E94B7
:1018600062128C0140E2E42EF12CDC011196FC9214
:10187000EE9213961C921E9212978FEF90E015969F
:101880009C938E93149717969C938E931697199604
:101890009C938E9318971B961C921B9751961C92A3
:1018A000F801108E118E128E138E81E0878B848B3F
:1018B000158AD68A828780E690E0978786870E947D
:1018C0006212D80153969C938E935297009751F0D1
:1018D00020E6FC0111922A95E9F71D96FC92EE9202
:1018E0001C9709C0D8011F961C921E921E971D9628
:1018F0001C921E921C9787E0F801808B83858823B9
:1019000041F061E087E00E94BE0560E087E00E9450
:101910004D04E6EEF0E0E491F0E0EE0FFF1FEB5235
:10192000FF4F85919491D8015D969C938E935C971F
:10193000E8ECF0E0E4915E96EC935E9750968C9123
:1019400087FD08C061E00E94BE0560E0F801808963
:101950000E944D0481E0D8011B968C931B978FEF5A
:1019600090E015969C938E93149717961C921E9256
:10197000169719961C921E921897C8010E945B0830
:1019800010938C0200938B0261E084E00E94BE05FC
:1019900061E085E00E94BE0561E086E00E94BE0530
:1019A00061EB73E08AE891E00E94CE0A6DE673E095
:1019B00082E991E00E94CE0A69E273E08AE991E04F
:1019C0000E94CE0A69E974E082EA91E00E94CE0AA0
:1019D0006AEF72E08BEA91E00E94CE0A6BE679E052
:1019E00086EB91E00E94CE0A61EF72E08EEB91E00F
:1019F0000E94CE0A64E475E08AEC91E00E94CE0A6F
:101A000067E073E083ED91E00E94CE0A6EED71E035
:101A1000CE0101960E94670A60E080E00E949E0A63
:101A2000CE0101960E94950A60ED77E080E090E09B
:101A30000E94FA05CE0101960E94880A92E1B92E11
:101A40008091140490911504892B39F0809114042D
:101A500090911504019749F016C08DE892E00E941C
:101A6000010118161906C4F0F1CF80911604909167
:101A70001704DC01ED91FC910084F185E02D0995BE
:101A8000181619064CF080918B0290918C020E94DE
:101A90005B080E94A101D4CF809114049091150499
:101AA000892B29F48DE892E00E94DF000BC0809121
:101AB000160490911704DC01ED91FC910284F385EA
:101AC000E02D099580934203909142038091570342
:101AD000981346C010925403109253034AE553E002
:101AE00065E573E083E493E00E948F0E7C019093A0
:101AF000590380935803892B31F280905C039090B6
:101B00005D038EE5C82E83E0D82E00E010E00815B6
:101B100019050CF04CC040E150E0B601C7010E942D
:101B20007714B2E1CB0ED11C892BB9F4B09EF00131
:101B3000B19EF00D1124EE5BFC4F04A4F5A5E02D41
:101B40000995E3E4F3E0119223E0E335F207D9F7D6
:101B5000109254031092530303C00F5F1F4FD7CF4F
:101B600010914203812F012E000C990B0E946014EA
:101B7000892B09F465CF80915303909154039C0104
:101B80002F5F3F4F3093540320935303FC01EE5BD0
:101B9000FC4F1183F901EE5BFC4F118220313105BE
:101BA0000CF44ECF109254031092530349CFE0919E
:101BB0001204F09113040995E3E4F3E0119283E039
:101BC000E335F807D9F7C4CF1092900210928F0234
:101BD00088EE93E0A0E0B0E08093910290939202AF
:101BE000A0939302B09394022CE131E030938E02E3
:101BF00020938D0225EC30E030939A0220939902D5
:101C000024EC30E030939C0220939B0220EC30E0E7
:101C100030939E0220939D0221EC30E03093A0028D
:101C200020939F0222EC30E03093A2022093A10285
:101C300026EC30E03093A4022093A3021092A60277
:101C40001092A7021092A8021092A90210922D03DE
:101C500010922C0380932E0390932F03A0933003B4
:101C6000B09331038EE291E090932B0380932A038B
:101C7000109215041092140480E290E090935603A1
:101C8000809355038DE08093570310925D0310926B
:101C90005C03E3E4F3E0119283E0E335F807D9F75E
:101CA0001092540310925303109239031092380388
:101CB00080E491E0909337038093360387E280932A
:101CC0003A0384E180933E0384E080933F031092C3
:101CD000400388E0809341030895662777270C949A
:101CE000BE0EFC0188279927E89421912032E9F360
:101CF000293010F02E30C8F32B3241F02D3239F458
:101D0000689404C00E94B60E820F911D2191205349
:101D10002A30C0F31EF4909581959F4F0895FA01E3
:101D2000A191B081009719F41097E1F0CD01DC0189
:101D3000CD010D90002011F4C00113C0FB012191D1
:101D4000222319F02015D9F7F3CFFB01219120159B
:101D500019F41E92119606C02223C1F70D9000209F
:101D6000A1F7D001FA01A193B08308957AE0979F7B
:101D7000902D879F802D910D11240895A0E0B0E053
:101D8000E4ECFEE00C947211EC017B01611571052D
:101D900019F0DB018D939C938E010F5F1F4F7880AC
:101DA000872D90E00E941B10892B11F0E801F4CFE1
:101DB000BDE27B1205C00F5F1F4F7980C1E008C0F4
:101DC000EBE27E1204C08E010E5F1F4F7980C0E0EF
:101DD0006801F1E0CF1AD10843E050E060E770E01D
:101DE000C6010E942410892BF1F4680122E0C20E82
:101DF000D11C45E050E06BE670E0C6010E94241063
:101E0000892B21F4680187E0C80ED11CE114F1048C
:101E100019F0D701CD92DC92C111FFC060E070E0F3
:101E200080E89FE703C143E050E068E670E0C60148
:101E30000E942410892B51F4E114F10409F4F2C03A
:101E40000E5F1F4FF70111830083ECC0680160E053
:101E500070E0CB0100E010E0F601D0EDD70DDA30F4
:101E600058F52C2F2260622E2C2F2870C2FF05C03F
:101E7000211128C00F5F1F4F25C0222311F00150F0
:101E80001109A5E0B0E09B01AC010E9463114B0178
:101E90005C01880C991CAA1CBB1CC501B4016D0F08
:101EA000711D811D911D6839A9E97A078A07A9E189
:101EB0009A0740F0C66005C0DE3F51F4C3FD44C040
:101EC000C8606C2EBFEFCB1ADB0A7080C62DC4CF62
:101ED0002D2F2F7D2531C1F540814D3211F4C06188
:101EE00006C04B3221F0319621E030E006C0329638
:101EF000D60111964C9122E030E0A0EDA40FAA305B
:101F000018F0E21BF30B20C040E050E04038BCE08A
:101F10005B075CF49A01220F331F220F331F420F1D
:101F2000531F440F551F4A0F511D3196DF01119762
:101F30002C91A0EDA20FAA3048F3C4FF03C0519525
:101F400041955109040F151FC1FF07C0E114F104A9
:101F500021F03197D701ED93FC930E944110C3709B
:101F6000C33019F06B017C0106C06B017C01F7FAEC
:101F7000F094F7F8F09420E030E0A901C701B60131
:101F80000E943C10882309F445C017FF06C0119534
:101F900001951109C7E8D0E002C0CFE9D0E05E01A9
:101FA000B8E1AB1AB1084601BE2DAF2D90E2E92E83
:101FB000F12C0E151F0584F0FE01259135914591F8
:101FC0005491B4018B2F9A2F0E94A2104B01B82F6D
:101FD000A92F0E191F09EDCF2497F594E794CA1580
:101FE000DB0539F76401EB2EFA2E8E2D880F8F2D2D
:101FF000881F8F3F49F020E030E0A901C701B601FA
:102000000E943C10811106C082E290E09093190476
:1020100080931804C701B60109C060E070E080E851
:102020009FEF04C060E070E080EC9FE7CDB7DEB7C3
:10203000EEE00C948E1191110C940F11803219F076
:1020400089508550C8F70895FB01DC01415050408C
:1020500088F08D9181341CF08B350CF4805E659195
:1020600061341CF06B350CF4605E861B611171F3FA
:10207000990B0895881BFCCF0E947E1008F481E024
:102080000895E89409C097FB3EF49095809570956B
:1020900061957F4F8F4F9F4F9923A9F0F92F96E9B4
:1020A000BB279395F695879577956795B795F11129
:1020B000F8CFFAF4BB0F11F460FF1BC06F5F7F4FC6
:1020C0008F4F9F4F16C0882311F096E911C07723D8
:1020D00021F09EE8872F762F05C0662371F096E8E1
:1020E000862F70E060E02AF09A95660F771F881FB0
:1020F000DAF7880F9695879597F90895990F000854
:10210000550FAA0BE0E8FEEF16161706E807F907C9
:10211000C0F012161306E407F50798F0621B730B64
:10212000840B950B39F40A2661F0232B242B252BE5
:1021300021F408950A2609F4A140A6958FEF811D88
:10214000811D08950E94B5100C9429110E941B1145
:1021500038F00E94221120F0952311F00C941211F6
:102160000C94181111240C945D110E943A1170F313
:10217000959FC1F3950F50E0551F629FF001729F2C
:10218000BB27F00DB11D639FAA27F00DB11DAA1F3B
:10219000649F6627B00DA11D661F829F2227B00D88
:1021A000A11D621F739FB00DA11D621F839FA00D13
:1021B000611D221F749F3327A00D611D231F849F63
:1021C000600D211D822F762F6A2F11249F575040BA
:1021D0009AF0F1F088234AF0EE0FFF1FBB1F661F35
:1021E000771F881F91505040A9F79E3F510580F0FE
:1021F0000C9412110C945D115F3FE4F3983ED4F3FC
:10220000869577956795B795F795E7959F5FC1F7A1
:10221000FE2B880F911D9695879597F9089599271C
:102220008827089597F99F6780E870E060E0089537
:102230009FEF80EC089500240A94161617061806DE
:102240000906089500240A941216130614060506BA
:102250000895092E0394000C11F4882352F0BB0F4B
:1022600040F4BF2B11F460FF04C06F5F7F4F8F4FAE
:102270009F4F089557FD9058440F551F59F05F3FE9
:1022800071F04795880F97FB991F61F09F3F79F098
:1022900087950895121613061406551FF2CF46951A
:1022A000F1DF08C0161617061806991FF1CF86959C
:1022B0007105610508940895E894BB276627772780
:1022C000CB0197F908950E94A511A59F900DB49F89
:1022D000900DA49F800D911D112408952F923F927F
:1022E0004F925F926F927F928F929F92AF92BF9226
:1022F000CF92DF92EF92FF920F931F93CF93DF93D2
:10230000CDB7DEB7CA1BDB0B0FB6F894DEBF0FBE2E
:10231000CDBF09942A88398848885F846E847D847B
:102320008C849B84AA84B984C884DF80EE80FD807D
:102330000C811B81AA81B981CE0FD11D0FB6F894F3
:10234000DEBF0FBECDBFED010895A29FB001B39FC8
:10235000C001A39F700D811D1124911DB29F700DAE
:10236000811D1124911D08955058BB27AA270E9452
:10237000CC110C9429110E941B1138F00E942211DB
:1023800020F039F49F3F19F426F40C9418110EF440
:10239000E095E7FB0C941211E92F0E943A1158F3D3
:1023A000BA17620773078407950720F079F4A6F53A
:1023B0000C945C110EF4E0950B2EBA2FA02D0B019E
:1023C000B90190010C01CA01A0011124FF27591B7A
:1023D00099F0593F50F4503E68F11A16F040A22F80
:1023E000232F342F4427585FF3CF469537952795F1
:1023F000A795F0405395C9F77EF41F16BA0B620BF0
:10240000730B840BBAF09150A1F0FF0FBB1F661F36
:10241000771F881FC2F70EC0BA0F621F731F841F79
:1024200048F4879577956795B795F7959E3F08F09F
:10243000B0CF9395880F08F09927EE0F9795879561
:1024400008950E9428126894B1110C945D110895AA
:102450000E94421188F09F5798F0B92F9927B751E1
:10246000B0F0E1F0660F771F881F991F1AF0BA9538
:10247000C9F714C0B13091F00E945C11B1E0089529
:102480000C945C11672F782F8827B85F39F0B93F1B
:10249000CCF3869577956795B395D9F73EF49095EB
:1024A0008095709561957F4F8F4F9F4F08950E9443
:1024B0007E1008F48FEF0895EE0FFF1F0590F49142
:1024C000E02D0994CF93DF938230910510F482E0E0
:1024D00090E0E0911C04F0911D0420E030E0C0E0A9
:1024E000D0E0309711F14081518148175907C0F071
:1024F0004817590761F482819381209719F09B83D3
:102500008A832BC090931D0480931C0426C0211540
:10251000310519F04217530718F49A01BE01DF0183
:10252000EF010280F381E02DDCCF2115310509F1A7
:10253000281B390B2430310590F412968D919C9113
:1025400013976115710521F0FB019383828304C009
:1025500090931D0480931C04FD01329644C0FD013C
:10256000E20FF31F81939193225031092D933C93F5
:102570003AC020911A0430911B04232B41F420917E
:102580000C0130910D0130931B0420931A0420910B
:102590000A0130910B012115310541F42DB73EB7E9
:1025A00040910E0150910F01241B350BE0911A044C
:1025B000F0911B04E217F307A0F42E1B3F0B281722
:1025C000390778F0AC014E5F5F4F2417350748F0AC
:1025D0004E0F5F1F50931B0440931A0481939193F5
:1025E00002C0E0E0F0E0CF01DF91CF9108950F93BA
:1025F0001F93CF93DF93009709F48CC0FC013297AF
:102600001382128200911C0410911D040115110502
:1026100081F420813181820F931F20911A0430911F
:102620001B042817390779F5F0931B04E0931A046B
:1026300071C0D80140E050E0AE17BF0750F41296C9
:102640002D913C911397AD012115310509F1D90167
:10265000F3CF9D01DA013383228360817181860F7C
:10266000971F8217930769F4EC0128813981260F9F
:10267000371F2E5F3F4F318320838A819B81938355
:102680008283452B29F4F0931D04E0931C0442C07F
:102690001396FC93EE931297ED01499159919E0187
:1026A000240F351FE217F30771F480819181840FA5
:1026B000951F029611969C938E9382819381139617
:1026C0009C938E931297E0E0F0E0D80112968D91E2
:1026D0009C911397009719F0F8018C01F6CF8D911A
:1026E0009C9198012E5F3F4F820F931F20911A04F7
:1026F00030911B042817390769F4309729F4109298
:102700001D0410921C0402C01382128210931B0439
:1027100000931A04DF91CF911F910F910895A0E0CB
:10272000B0E0E5E9F3E10C947211EC01009721F4BB
:10273000CB010E946212B8C0FC01E60FF71F9C019A
:1027400022503109E217F30708F4ACC0D9010D910A
:102750001C91119706171707B0F00530110508F402
:102760009FC0C80104978617970708F499C00250C4
:102770001109061B170B019311936D937C93CF01E5
:102780000E94F7128DC05B01A01AB10A4C01800EA5
:10279000911EA0911C04B0911D0440E050E0E12C7A
:1027A000F12C109709F44AC0A815B905D1F56D9020
:1027B0007C901197630182E0C80ED11CCA14DB041F
:1027C00080F1A3014A195B096A0182E0C80ED11C9D
:1027D0001296BC9012971396AC91B5E0CB16D1042B
:1027E00040F0B282A38351834083D9016D937C93DF
:1027F0000AC00E5F1F4FC301800F911FF901918323
:102800008083EB2DFA2FE114F10431F0D7011396F8
:10281000FC93EE93129744C0F0931D04E0931C04C4
:102820003FC08D919C9111974817590708F4AC014E
:102830007D0112960D90BC91A02DB3CF80911A040A
:1028400090911B0488159905E1F446175707C8F4C1
:1028500080910A0190910B01009741F48DB79EB7CA
:1028600040910E0150910F01841B950BE817F90759
:10287000C8F4F0931B04E0931A04F9017183608398
:102880000FC0CB010E9462127C01009759F0A80191
:10289000BE010E946714CE010E94F712C70104C056
:1028A000CE0102C080E090E0CDB7DEB7EEE00C9440
:1028B0008E1181E090E0F8940C949414803209F029
:1028C00091110C940F1180528F55D8F70895FB0188
:1028D000DC0102C001900D9241505040D8F708959C
:1028E000FB01DC0101900D920020E1F70895FB014E
:1028F000DC014150504030F08D910190801919F465
:102900000020B9F7881B990B0895FB01DC014150A9
:10291000504048F001900D920020C9F701C01D926F
:0C29200041505040E0F70895F894FFCFBC
:10292C00000096420000F041580200001E04800096
:10293C000000400014005400000000003801A50005
:10294C00D0007F010101DF00F300000000005802FD
:10295C002802EE0202022002110203020000000013
:10296C001D07A500EE02ED02423A2000473A200076
:10297C00523A20002020202020202020202020201F
:10298C0020004E6869657420646F3A2000446F2003
:10299C00616D3A2000446F2073616E673A200053DA
:1029AC0065742075702E2E2E2E004C696768745F2E
:1029BC0052004C696768745F47004C696768745FC4
:1029CC0042005365745F54656D700054656D705FA3
:1029DC0052656C6179005365745F4C7578004C7569
:1029EC00785F436F6E74726F6C005365745F4875DB
:1029FC006D690048756D695F52656C617900446161
:0C2A0C006E672063616920646174000043
:00000001FF
